{
  "_format": "hh-sol-artifact-1",
  "contractName": "CrowdFunding",
  "sourceName": "contracts/CrowdFunding.sol",
  "abi": [
    {
      "inputs": [
        {
          "internalType": "uint256",
          "name": "",
          "type": "uint256"
        }
      ],
      "name": "campaigns",
      "outputs": [
        {
          "internalType": "address",
          "name": "owner",
          "type": "address"
        },
        {
          "internalType": "string",
          "name": "title",
          "type": "string"
        },
        {
          "internalType": "string",
          "name": "description",
          "type": "string"
        },
        {
          "internalType": "uint256",
          "name": "target",
          "type": "uint256"
        },
        {
          "internalType": "uint256",
          "name": "deadline",
          "type": "uint256"
        },
        {
          "internalType": "uint256",
          "name": "amountCollected",
          "type": "uint256"
        }
      ],
      "stateMutability": "view",
      "type": "function"
    },
    {
      "inputs": [
        {
          "internalType": "address",
          "name": "_owner",
          "type": "address"
        },
        {
          "internalType": "string",
          "name": "_title",
          "type": "string"
        },
        {
          "internalType": "string",
          "name": "_description",
          "type": "string"
        },
        {
          "internalType": "uint256",
          "name": "_target",
          "type": "uint256"
        },
        {
          "internalType": "uint256",
          "name": "_deadline",
          "type": "uint256"
        }
      ],
      "name": "createCampaign",
      "outputs": [
        {
          "internalType": "uint256",
          "name": "",
          "type": "uint256"
        }
      ],
      "stateMutability": "nonpayable",
      "type": "function"
    },
    {
      "inputs": [
        {
          "internalType": "uint256",
          "name": "_id",
          "type": "uint256"
        }
      ],
      "name": "donateToCampaign",
      "outputs": [],
      "stateMutability": "payable",
      "type": "function"
    },
    {
      "inputs": [],
      "name": "getCampaigns",
      "outputs": [
        {
          "components": [
            {
              "internalType": "address",
              "name": "owner",
              "type": "address"
            },
            {
              "internalType": "string",
              "name": "title",
              "type": "string"
            },
            {
              "internalType": "string",
              "name": "description",
              "type": "string"
            },
            {
              "internalType": "uint256",
              "name": "target",
              "type": "uint256"
            },
            {
              "internalType": "uint256",
              "name": "deadline",
              "type": "uint256"
            },
            {
              "internalType": "uint256",
              "name": "amountCollected",
              "type": "uint256"
            },
            {
              "internalType": "address[]",
              "name": "donators",
              "type": "address[]"
            },
            {
              "internalType": "uint256[]",
              "name": "donations",
              "type": "uint256[]"
            }
          ],
          "internalType": "struct CrowdFunding.Campaign[]",
          "name": "",
          "type": "tuple[]"
        }
      ],
      "stateMutability": "view",
      "type": "function"
    },
    {
      "inputs": [
        {
          "internalType": "uint256",
          "name": "_id",
          "type": "uint256"
        }
      ],
      "name": "getDonators",
      "outputs": [
        {
          "internalType": "address[]",
          "name": "",
          "type": "address[]"
        },
        {
          "internalType": "uint256[]",
          "name": "",
          "type": "uint256[]"
        }
      ],
      "stateMutability": "view",
      "type": "function"
    },
    {
      "inputs": [],
      "name": "numberOfCampaigns",
      "outputs": [
        {
          "internalType": "uint256",
          "name": "",
          "type": "uint256"
        }
      ],
      "stateMutability": "view",
      "type": "function"
    }
  ],
  "bytecode": "0x6080604052600060015534801561001557600080fd5b50611779806100256000396000f3fe6080604052600436106100555760003560e01c8063075843c31461005a57806307ca140d146100975780630fa91fa9146100c2578063141961bc1461010057806342a4fda814610142578063a6b036331461015e575b600080fd5b34801561006657600080fd5b50610081600480360381019061007c9190610bf4565b610189565b60405161008e9190610cb6565b60405180910390f35b3480156100a357600080fd5b506100ac610285565b6040516100b99190610cb6565b60405180910390f35b3480156100ce57600080fd5b506100e960048036038101906100e49190610cd1565b61028b565b6040516100f7929190610e7a565b60405180910390f35b34801561010c57600080fd5b5061012760048036038101906101229190610cd1565b61039b565b60405161013996959493929190610f3f565b60405180910390f35b61015c60048036038101906101579190610cd1565b610507565b005b34801561016a57600080fd5b50610173610667565b604051610180919061125d565b60405180910390f35b60008060008060015481526020019081526020016000209050428160040154106101e8576040517f08c379a00000000000000000000000000000000000000000000000000000000081526004016101df906112f1565b60405180910390fd5b868160000160006101000a81548173ffffffffffffffffffffffffffffffffffffffff021916908373ffffffffffffffffffffffffffffffffffffffff1602179055508581600101908161023c919061151d565b508481600201908161024e919061151d565b508381600301819055508281600401819055506000816005018190555060018054610279919061161e565b91505095945050505050565b60015481565b6060806000808481526020019081526020016000206006016000808581526020019081526020016000206007018180548060200260200160405190810160405280929190818152602001828054801561033957602002820191906000526020600020905b8160009054906101000a900473ffffffffffffffffffffffffffffffffffffffff1673ffffffffffffffffffffffffffffffffffffffff16815260200190600101908083116102ef575b505050505091508080548060200260200160405190810160405280929190818152602001828054801561038b57602002820191906000526020600020905b815481526020019060010190808311610377575b5050505050905091509150915091565b60006020528060005260406000206000915090508060000160009054906101000a900473ffffffffffffffffffffffffffffffffffffffff16908060010180546103e490611340565b80601f016020809104026020016040519081016040528092919081815260200182805461041090611340565b801561045d5780601f106104325761010080835404028352916020019161045d565b820191906000526020600020905b81548152906001019060200180831161044057829003601f168201915b50505050509080600201805461047290611340565b80601f016020809104026020016040519081016040528092919081815260200182805461049e90611340565b80156104eb5780601f106104c0576101008083540402835291602001916104eb565b820191906000526020600020905b8154815290600101906020018083116104ce57829003601f168201915b5050505050908060030154908060040154908060050154905086565b60003490506000806000848152602001908152602001600020905080600601339080600181540180825580915050600190039060005260206000200160009091909190916101000a81548173ffffffffffffffffffffffffffffffffffffffff021916908373ffffffffffffffffffffffffffffffffffffffff1602179055508060070182908060018154018082558091505060019003906000526020600020016000909190919091505560008160000160009054906101000a900473ffffffffffffffffffffffffffffffffffffffff1673ffffffffffffffffffffffffffffffffffffffff16836040516105fc90611683565b60006040518083038185875af1925050503d8060008114610639576040519150601f19603f3d011682016040523d82523d6000602084013e61063e565b606091505b505090508015610661578282600501546106589190611698565b82600501819055505b50505050565b6060600060015467ffffffffffffffff81111561068757610686610a93565b5b6040519080825280602002602001820160405280156106c057816020015b6106ad6109ab565b8152602001906001900390816106a55790505b50905060005b6001548110156109a3576000806000838152602001908152602001600020905080604051806101000160405290816000820160009054906101000a900473ffffffffffffffffffffffffffffffffffffffff1673ffffffffffffffffffffffffffffffffffffffff1673ffffffffffffffffffffffffffffffffffffffff16815260200160018201805461075990611340565b80601f016020809104026020016040519081016040528092919081815260200182805461078590611340565b80156107d25780601f106107a7576101008083540402835291602001916107d2565b820191906000526020600020905b8154815290600101906020018083116107b557829003601f168201915b505050505081526020016002820180546107eb90611340565b80601f016020809104026020016040519081016040528092919081815260200182805461081790611340565b80156108645780601f1061083957610100808354040283529160200191610864565b820191906000526020600020905b81548152906001019060200180831161084757829003601f168201915b505050505081526020016003820154815260200160048201548152602001600582015481526020016006820180548060200260200160405190810160405280929190818152602001828054801561091057602002820191906000526020600020905b8160009054906101000a900473ffffffffffffffffffffffffffffffffffffffff1673ffffffffffffffffffffffffffffffffffffffff16815260200190600101908083116108c6575b505050505081526020016007820180548060200260200160405190810160405280929190818152602001828054801561096857602002820191906000526020600020905b815481526020019060010190808311610954575b505050505081525050838381518110610984576109836116cc565b5b602002602001018190525050808061099b906116fb565b9150506106c6565b508091505090565b604051806101000160405280600073ffffffffffffffffffffffffffffffffffffffff168152602001606081526020016060815260200160008152602001600081526020016000815260200160608152602001606081525090565b6000604051905090565b600080fd5b600080fd5b600073ffffffffffffffffffffffffffffffffffffffff82169050919050565b6000610a4582610a1a565b9050919050565b610a5581610a3a565b8114610a6057600080fd5b50565b600081359050610a7281610a4c565b92915050565b600080fd5b600080fd5b6000601f19601f8301169050919050565b7f4e487b7100000000000000000000000000000000000000000000000000000000600052604160045260246000fd5b610acb82610a82565b810181811067ffffffffffffffff82111715610aea57610ae9610a93565b5b80604052505050565b6000610afd610a06565b9050610b098282610ac2565b919050565b600067ffffffffffffffff821115610b2957610b28610a93565b5b610b3282610a82565b9050602081019050919050565b82818337600083830152505050565b6000610b61610b5c84610b0e565b610af3565b905082815260208101848484011115610b7d57610b7c610a7d565b5b610b88848285610b3f565b509392505050565b600082601f830112610ba557610ba4610a78565b5b8135610bb5848260208601610b4e565b91505092915050565b6000819050919050565b610bd181610bbe565b8114610bdc57600080fd5b50565b600081359050610bee81610bc8565b92915050565b600080600080600060a08688031215610c1057610c0f610a10565b5b6000610c1e88828901610a63565b955050602086013567ffffffffffffffff811115610c3f57610c3e610a15565b5b610c4b88828901610b90565b945050604086013567ffffffffffffffff811115610c6c57610c6b610a15565b5b610c7888828901610b90565b9350506060610c8988828901610bdf565b9250506080610c9a88828901610bdf565b9150509295509295909350565b610cb081610bbe565b82525050565b6000602082019050610ccb6000830184610ca7565b92915050565b600060208284031215610ce757610ce6610a10565b5b6000610cf584828501610bdf565b91505092915050565b600081519050919050565b600082825260208201905092915050565b6000819050602082019050919050565b610d3381610a3a565b82525050565b6000610d458383610d2a565b60208301905092915050565b6000602082019050919050565b6000610d6982610cfe565b610d738185610d09565b9350610d7e83610d1a565b8060005b83811015610daf578151610d968882610d39565b9750610da183610d51565b925050600181019050610d82565b5085935050505092915050565b600081519050919050565b600082825260208201905092915050565b6000819050602082019050919050565b610df181610bbe565b82525050565b6000610e038383610de8565b60208301905092915050565b6000602082019050919050565b6000610e2782610dbc565b610e318185610dc7565b9350610e3c83610dd8565b8060005b83811015610e6d578151610e548882610df7565b9750610e5f83610e0f565b925050600181019050610e40565b5085935050505092915050565b60006040820190508181036000830152610e948185610d5e565b90508181036020830152610ea88184610e1c565b90509392505050565b610eba81610a3a565b82525050565b600081519050919050565b600082825260208201905092915050565b60005b83811015610efa578082015181840152602081019050610edf565b60008484015250505050565b6000610f1182610ec0565b610f1b8185610ecb565b9350610f2b818560208601610edc565b610f3481610a82565b840191505092915050565b600060c082019050610f546000830189610eb1565b8181036020830152610f668188610f06565b90508181036040830152610f7a8187610f06565b9050610f896060830186610ca7565b610f966080830185610ca7565b610fa360a0830184610ca7565b979650505050505050565b600081519050919050565b600082825260208201905092915050565b6000819050602082019050919050565b600082825260208201905092915050565b6000610ff682610ec0565b6110008185610fda565b9350611010818560208601610edc565b61101981610a82565b840191505092915050565b600082825260208201905092915050565b600061104082610cfe565b61104a8185611024565b935061105583610d1a565b8060005b8381101561108657815161106d8882610d39565b975061107883610d51565b925050600181019050611059565b5085935050505092915050565b600082825260208201905092915050565b60006110af82610dbc565b6110b98185611093565b93506110c483610dd8565b8060005b838110156110f55781516110dc8882610df7565b97506110e783610e0f565b9250506001810190506110c8565b5085935050505092915050565b60006101008301600083015161111b6000860182610d2a565b50602083015184820360208601526111338282610feb565b9150506040830151848203604086015261114d8282610feb565b91505060608301516111626060860182610de8565b5060808301516111756080860182610de8565b5060a083015161118860a0860182610de8565b5060c083015184820360c08601526111a08282611035565b91505060e083015184820360e08601526111ba82826110a4565b9150508091505092915050565b60006111d38383611102565b905092915050565b6000602082019050919050565b60006111f382610fae565b6111fd8185610fb9565b93508360208202850161120f85610fca565b8060005b8581101561124b578484038952815161122c85826111c7565b9450611237836111db565b925060208a01995050600181019050611213565b50829750879550505050505092915050565b6000602082019050818103600083015261127781846111e8565b905092915050565b7f54686520646561646c696e652073686f756c642062652061206461746520696e60008201527f20746865206675747572652e0000000000000000000000000000000000000000602082015250565b60006112db602c83610ecb565b91506112e68261127f565b604082019050919050565b6000602082019050818103600083015261130a816112ce565b9050919050565b7f4e487b7100000000000000000000000000000000000000000000000000000000600052602260045260246000fd5b6000600282049050600182168061135857607f821691505b60208210810361136b5761136a611311565b5b50919050565b60008190508160005260206000209050919050565b60006020601f8301049050919050565b600082821b905092915050565b6000600883026113d37fffffffffffffffffffffffffffffffffffffffffffffffffffffffffffffffff82611396565b6113dd8683611396565b95508019841693508086168417925050509392505050565b6000819050919050565b600061141a61141561141084610bbe565b6113f5565b610bbe565b9050919050565b6000819050919050565b611434836113ff565b61144861144082611421565b8484546113a3565b825550505050565b600090565b61145d611450565b61146881848461142b565b505050565b5b8181101561148c57611481600082611455565b60018101905061146e565b5050565b601f8211156114d1576114a281611371565b6114ab84611386565b810160208510156114ba578190505b6114ce6114c685611386565b83018261146d565b50505b505050565b600082821c905092915050565b60006114f4600019846008026114d6565b1980831691505092915050565b600061150d83836114e3565b9150826002028217905092915050565b61152682610ec0565b67ffffffffffffffff81111561153f5761153e610a93565b5b6115498254611340565b611554828285611490565b600060209050601f8311600181146115875760008415611575578287015190505b61157f8582611501565b8655506115e7565b601f19841661159586611371565b60005b828110156115bd57848901518255600182019150602085019450602081019050611598565b868310156115da57848901516115d6601f8916826114e3565b8355505b6001600288020188555050505b505050505050565b7f4e487b7100000000000000000000000000000000000000000000000000000000600052601160045260246000fd5b600061162982610bbe565b915061163483610bbe565b925082820390508181111561164c5761164b6115ef565b5b92915050565b600081905092915050565b50565b600061166d600083611652565b91506116788261165d565b600082019050919050565b600061168e82611660565b9150819050919050565b60006116a382610bbe565b91506116ae83610bbe565b92508282019050808211156116c6576116c56115ef565b5b92915050565b7f4e487b7100000000000000000000000000000000000000000000000000000000600052603260045260246000fd5b600061170682610bbe565b91507fffffffffffffffffffffffffffffffffffffffffffffffffffffffffffffffff8203611738576117376115ef565b5b60018201905091905056fea264697066735822122055dcf89d20f4fb663b5d050c2e20589973780ae35ef8e67b3a2099cb99ff6f4164736f6c63430008130033",
  "linkReferences": {},
  "deployedLinkReferences": {}
}